{
  "contractName": "Certificate",
  "abi": [
    {
      "inputs": [
        {
          "internalType": "uint256",
          "name": "",
          "type": "uint256"
        }
      ],
      "name": "certHashes",
      "outputs": [
        {
          "internalType": "bytes32",
          "name": "",
          "type": "bytes32"
        }
      ],
      "stateMutability": "view",
      "type": "function",
      "constant": true
    },
    {
      "inputs": [
        {
          "internalType": "bytes32",
          "name": "",
          "type": "bytes32"
        }
      ],
      "name": "certificates",
      "outputs": [
        {
          "internalType": "string",
          "name": "studentName",
          "type": "string"
        },
        {
          "internalType": "string",
          "name": "degreeName",
          "type": "string"
        },
        {
          "internalType": "string",
          "name": "institutionName",
          "type": "string"
        },
        {
          "internalType": "string",
          "name": "graduationDate",
          "type": "string"
        },
        {
          "internalType": "string",
          "name": "ipfsHash",
          "type": "string"
        }
      ],
      "stateMutability": "view",
      "type": "function",
      "constant": true
    },
    {
      "inputs": [
        {
          "internalType": "string",
          "name": "studentName",
          "type": "string"
        },
        {
          "internalType": "string",
          "name": "degreeName",
          "type": "string"
        },
        {
          "internalType": "string",
          "name": "institutionName",
          "type": "string"
        },
        {
          "internalType": "string",
          "name": "graduationDate",
          "type": "string"
        },
        {
          "internalType": "string",
          "name": "ipfsHash",
          "type": "string"
        }
      ],
      "name": "storeCertificate",
      "outputs": [
        {
          "internalType": "bytes32",
          "name": "",
          "type": "bytes32"
        }
      ],
      "stateMutability": "nonpayable",
      "type": "function"
    },
    {
      "inputs": [
        {
          "internalType": "bytes32",
          "name": "certHash",
          "type": "bytes32"
        }
      ],
      "name": "getCertificate",
      "outputs": [
        {
          "components": [
            {
              "internalType": "string",
              "name": "studentName",
              "type": "string"
            },
            {
              "internalType": "string",
              "name": "degreeName",
              "type": "string"
            },
            {
              "internalType": "string",
              "name": "institutionName",
              "type": "string"
            },
            {
              "internalType": "string",
              "name": "graduationDate",
              "type": "string"
            },
            {
              "internalType": "string",
              "name": "ipfsHash",
              "type": "string"
            }
          ],
          "internalType": "struct Certificate.Cert",
          "name": "",
          "type": "tuple"
        }
      ],
      "stateMutability": "view",
      "type": "function",
      "constant": true
    },
    {
      "inputs": [],
      "name": "getCertificatesCount",
      "outputs": [
        {
          "internalType": "uint256",
          "name": "",
          "type": "uint256"
        }
      ],
      "stateMutability": "view",
      "type": "function",
      "constant": true
    },
    {
      "inputs": [
        {
          "internalType": "uint256",
          "name": "index",
          "type": "uint256"
        }
      ],
      "name": "getCertificateHashByIndex",
      "outputs": [
        {
          "internalType": "bytes32",
          "name": "",
          "type": "bytes32"
        }
      ],
      "stateMutability": "view",
      "type": "function",
      "constant": true
    }
  ],
  "bytecode": "0x608060405234801561001057600080fd5b506110f3806100206000396000f3fe608060405234801561001057600080fd5b50600436106100625760003560e01c8063742f0688146100675780637970acf51461009b57806386e4a22e146100cb5780638fb03a02146100fb578063ee86d59514610119578063f333fe0814610149575b600080fd5b610081600480360381019061007c9190610ac0565b610179565b604051610092959493929190610e22565b60405180910390f35b6100b560048036038101906100b09190610ae9565b610457565b6040516100c29190610e07565b60405180910390f35b6100e560048036038101906100e09190610bd8565b610590565b6040516100f29190610e07565b60405180910390f35b6101036105b4565b6040516101109190610eda565b60405180910390f35b610133600480360381019061012e9190610bd8565b6105c1565b6040516101409190610e07565b60405180910390f35b610163600480360381019061015e9190610ac0565b610656565b6040516101709190610eb8565b60405180910390f35b600060205280600052604060002060009150905080600001805461019c90610fe4565b80601f01602080910402602001604051908101604052809291908181526020018280546101c890610fe4565b80156102155780601f106101ea57610100808354040283529160200191610215565b820191906000526020600020905b8154815290600101906020018083116101f857829003601f168201915b50505050509080600101805461022a90610fe4565b80601f016020809104026020016040519081016040528092919081815260200182805461025690610fe4565b80156102a35780601f10610278576101008083540402835291602001916102a3565b820191906000526020600020905b81548152906001019060200180831161028657829003601f168201915b5050505050908060020180546102b890610fe4565b80601f01602080910402602001604051908101604052809291908181526020018280546102e490610fe4565b80156103315780601f1061030657610100808354040283529160200191610331565b820191906000526020600020905b81548152906001019060200180831161031457829003601f168201915b50505050509080600301805461034690610fe4565b80601f016020809104026020016040519081016040528092919081815260200182805461037290610fe4565b80156103bf5780601f10610394576101008083540402835291602001916103bf565b820191906000526020600020905b8154815290600101906020018083116103a257829003601f168201915b5050505050908060040180546103d490610fe4565b80601f016020809104026020016040519081016040528092919081815260200182805461040090610fe4565b801561044d5780601f106104225761010080835404028352916020019161044d565b820191906000526020600020905b81548152906001019060200180831161043057829003601f168201915b5050505050905085565b60008086868686864260405160200161047596959493929190610dab565b6040516020818303038152906040528051906020012090506040518060a001604052808881526020018781526020018681526020018581526020018481525060008083815260200190815260200160002060008201518160000190805190602001906104e292919061095c565b5060208201518160010190805190602001906104ff92919061095c565b50604082015181600201908051906020019061051c92919061095c565b50606082015181600301908051906020019061053992919061095c565b50608082015181600401908051906020019061055692919061095c565b5090505060018190806001815401808255809150506001900390600052602060002001600090919091909150558091505095945050505050565b600181815481106105a057600080fd5b906000526020600020016000915090505481565b6000600180549050905090565b6000600180549050821061060a576040517f08c379a000000000000000000000000000000000000000000000000000000000815260040161060190610e98565b60405180910390fd5b60018281548110610644577f4e487b7100000000000000000000000000000000000000000000000000000000600052603260045260246000fd5b90600052602060002001549050919050565b61065e6109e2565b6000808381526020019081526020016000206040518060a001604052908160008201805461068b90610fe4565b80601f01602080910402602001604051908101604052809291908181526020018280546106b790610fe4565b80156107045780601f106106d957610100808354040283529160200191610704565b820191906000526020600020905b8154815290600101906020018083116106e757829003601f168201915b5050505050815260200160018201805461071d90610fe4565b80601f016020809104026020016040519081016040528092919081815260200182805461074990610fe4565b80156107965780601f1061076b57610100808354040283529160200191610796565b820191906000526020600020905b81548152906001019060200180831161077957829003601f168201915b505050505081526020016002820180546107af90610fe4565b80601f01602080910402602001604051908101604052809291908181526020018280546107db90610fe4565b80156108285780601f106107fd57610100808354040283529160200191610828565b820191906000526020600020905b81548152906001019060200180831161080b57829003601f168201915b5050505050815260200160038201805461084190610fe4565b80601f016020809104026020016040519081016040528092919081815260200182805461086d90610fe4565b80156108ba5780601f1061088f576101008083540402835291602001916108ba565b820191906000526020600020905b81548152906001019060200180831161089d57829003601f168201915b505050505081526020016004820180546108d390610fe4565b80601f01602080910402602001604051908101604052809291908181526020018280546108ff90610fe4565b801561094c5780601f106109215761010080835404028352916020019161094c565b820191906000526020600020905b81548152906001019060200180831161092f57829003601f168201915b5050505050815250509050919050565b82805461096890610fe4565b90600052602060002090601f01602090048101928261098a57600085556109d1565b82601f106109a357805160ff19168380011785556109d1565b828001600101855582156109d1579182015b828111156109d05782518255916020019190600101906109b5565b5b5090506109de9190610a11565b5090565b6040518060a0016040528060608152602001606081526020016060815260200160608152602001606081525090565b5b80821115610a2a576000816000905550600101610a12565b5090565b6000610a41610a3c84610f26565b610ef5565b905082815260208101848484011115610a5957600080fd5b610a64848285610fa2565b509392505050565b600081359050610a7b8161108f565b92915050565b600082601f830112610a9257600080fd5b8135610aa2848260208601610a2e565b91505092915050565b600081359050610aba816110a6565b92915050565b600060208284031215610ad257600080fd5b6000610ae084828501610a6c565b91505092915050565b600080600080600060a08688031215610b0157600080fd5b600086013567ffffffffffffffff811115610b1b57600080fd5b610b2788828901610a81565b955050602086013567ffffffffffffffff811115610b4457600080fd5b610b5088828901610a81565b945050604086013567ffffffffffffffff811115610b6d57600080fd5b610b7988828901610a81565b935050606086013567ffffffffffffffff811115610b9657600080fd5b610ba288828901610a81565b925050608086013567ffffffffffffffff811115610bbf57600080fd5b610bcb88828901610a81565b9150509295509295909350565b600060208284031215610bea57600080fd5b6000610bf884828501610aab565b91505092915050565b610c0a81610f8e565b82525050565b6000610c1b82610f56565b610c258185610f61565b9350610c35818560208601610fb1565b610c3e8161107e565b840191505092915050565b6000610c5482610f56565b610c5e8185610f72565b9350610c6e818560208601610fb1565b610c778161107e565b840191505092915050565b6000610c8d82610f56565b610c978185610f83565b9350610ca7818560208601610fb1565b80840191505092915050565b6000610cc0601383610f72565b91507f496e646578206f7574206f6620626f756e6473000000000000000000000000006000830152602082019050919050565b600060a0830160008301518482036000860152610d108282610c10565b91505060208301518482036020860152610d2a8282610c10565b91505060408301518482036040860152610d448282610c10565b91505060608301518482036060860152610d5e8282610c10565b91505060808301518482036080860152610d788282610c10565b9150508091505092915050565b610d8e81610f98565b82525050565b610da5610da082610f98565b611016565b82525050565b6000610db78289610c82565b9150610dc38288610c82565b9150610dcf8287610c82565b9150610ddb8286610c82565b9150610de78285610c82565b9150610df38284610d94565b602082019150819050979650505050505050565b6000602082019050610e1c6000830184610c01565b92915050565b600060a0820190508181036000830152610e3c8188610c49565b90508181036020830152610e508187610c49565b90508181036040830152610e648186610c49565b90508181036060830152610e788185610c49565b90508181036080830152610e8c8184610c49565b90509695505050505050565b60006020820190508181036000830152610eb181610cb3565b9050919050565b60006020820190508181036000830152610ed28184610cf3565b905092915050565b6000602082019050610eef6000830184610d85565b92915050565b6000604051905081810181811067ffffffffffffffff82111715610f1c57610f1b61104f565b5b8060405250919050565b600067ffffffffffffffff821115610f4157610f4061104f565b5b601f19601f8301169050602081019050919050565b600081519050919050565b600082825260208201905092915050565b600082825260208201905092915050565b600081905092915050565b6000819050919050565b6000819050919050565b82818337600083830152505050565b60005b83811015610fcf578082015181840152602081019050610fb4565b83811115610fde576000848401525b50505050565b60006002820490506001821680610ffc57607f821691505b602082108114156110105761100f611020565b5b50919050565b6000819050919050565b7f4e487b7100000000000000000000000000000000000000000000000000000000600052602260045260246000fd5b7f4e487b7100000000000000000000000000000000000000000000000000000000600052604160045260246000fd5b6000601f19601f8301169050919050565b61109881610f8e565b81146110a357600080fd5b50565b6110af81610f98565b81146110ba57600080fd5b5056fea26469706673582212207887b6c57dd89661c38eab30111b51ae76d1d9020fabec1104cc14a7d486ff5e64736f6c63430008000033",
  "immutableReferences": {},
  "source": "// SPDX-License-Identifier: MIT\r\npragma solidity ^0.8.0;\r\n\r\ncontract Certificate {\r\n    struct Cert {\r\n        string studentName;\r\n        string degreeName;\r\n        string institutionName;\r\n        string graduationDate;\r\n        string ipfsHash;\r\n    }\r\n\r\n    mapping(bytes32 => Cert) public certificates;\r\n    bytes32[] public certHashes;\r\n\r\n    // Store a certificate\r\n    function storeCertificate(\r\n        string memory studentName,\r\n        string memory degreeName,\r\n        string memory institutionName,\r\n        string memory graduationDate,\r\n        string memory ipfsHash\r\n    ) public returns (bytes32) {\r\n        bytes32 certHash = keccak256(abi.encodePacked(studentName, degreeName, institutionName, graduationDate, ipfsHash, block.timestamp));\r\n\r\n        certificates[certHash] = Cert(studentName, degreeName, institutionName, graduationDate, ipfsHash);\r\n        certHashes.push(certHash);\r\n\r\n        return certHash;\r\n    }\r\n\r\n    // Get certificate details by hash\r\n    function getCertificate(bytes32 certHash) public view returns (Cert memory) {\r\n        return certificates[certHash];\r\n    }\r\n\r\n    // Get total certificates count\r\n    function getCertificatesCount() public view returns (uint) {\r\n        return certHashes.length;\r\n    }\r\n\r\n    // Get certificate hash by index\r\n    function getCertificateHashByIndex(uint index) public view returns (bytes32) {\r\n        require(index < certHashes.length, \"Index out of bounds\");\r\n        return certHashes[index];\r\n    }\r\n}\r\n",
  "sourcePath": "C:\\Users\\dell2\\OneDrive\\Desktop\\student-certificate\\smart-contract\\contracts\\Certificate.sol",
  "compiler": {
    "name": "solc",
    "version": "0.8.0+commit.c7dfd78e.Emscripten.clang"
  },
  "schemaVersion": "3.4.16",
  "updatedAt": "2025-06-24T11:16:43.655Z",
  "networkType": "ethereum",
  "devdoc": {
    "kind": "dev",
    "methods": {},
    "version": 1
  },
  "userdoc": {
    "kind": "user",
    "methods": {},
    "version": 1
  }
}